{
  "contractName": "MedicalPrescription",
  "abi": [
    {
      "inputs": [],
      "stateMutability": "nonpayable",
      "type": "constructor"
    },
    {
      "anonymous": false,
      "inputs": [
        {
          "indexed": true,
          "internalType": "address",
          "name": "doctor",
          "type": "address"
        },
        {
          "indexed": true,
          "internalType": "bytes32",
          "name": "prescriptionHash",
          "type": "bytes32"
        }
      ],
      "name": "PrescriptionAdded",
      "type": "event"
    },
    {
      "anonymous": false,
      "inputs": [
        {
          "indexed": true,
          "internalType": "bytes32",
          "name": "role",
          "type": "bytes32"
        },
        {
          "indexed": true,
          "internalType": "bytes32",
          "name": "previousAdminRole",
          "type": "bytes32"
        },
        {
          "indexed": true,
          "internalType": "bytes32",
          "name": "newAdminRole",
          "type": "bytes32"
        }
      ],
      "name": "RoleAdminChanged",
      "type": "event"
    },
    {
      "anonymous": false,
      "inputs": [
        {
          "indexed": true,
          "internalType": "bytes32",
          "name": "role",
          "type": "bytes32"
        },
        {
          "indexed": true,
          "internalType": "address",
          "name": "account",
          "type": "address"
        },
        {
          "indexed": true,
          "internalType": "address",
          "name": "sender",
          "type": "address"
        }
      ],
      "name": "RoleGranted",
      "type": "event"
    },
    {
      "anonymous": false,
      "inputs": [
        {
          "indexed": true,
          "internalType": "bytes32",
          "name": "role",
          "type": "bytes32"
        },
        {
          "indexed": true,
          "internalType": "address",
          "name": "account",
          "type": "address"
        },
        {
          "indexed": true,
          "internalType": "address",
          "name": "sender",
          "type": "address"
        }
      ],
      "name": "RoleRevoked",
      "type": "event"
    },
    {
      "inputs": [],
      "name": "DEFAULT_ADMIN_ROLE",
      "outputs": [
        {
          "internalType": "bytes32",
          "name": "",
          "type": "bytes32"
        }
      ],
      "stateMutability": "view",
      "type": "function",
      "constant": true
    },
    {
      "inputs": [],
      "name": "DOCTOR_ROLE",
      "outputs": [
        {
          "internalType": "bytes32",
          "name": "",
          "type": "bytes32"
        }
      ],
      "stateMutability": "view",
      "type": "function",
      "constant": true
    },
    {
      "inputs": [],
      "name": "PHARMACIST_ROLE",
      "outputs": [
        {
          "internalType": "bytes32",
          "name": "",
          "type": "bytes32"
        }
      ],
      "stateMutability": "view",
      "type": "function",
      "constant": true
    },
    {
      "inputs": [
        {
          "internalType": "bytes32",
          "name": "role",
          "type": "bytes32"
        }
      ],
      "name": "getRoleAdmin",
      "outputs": [
        {
          "internalType": "bytes32",
          "name": "",
          "type": "bytes32"
        }
      ],
      "stateMutability": "view",
      "type": "function",
      "constant": true
    },
    {
      "inputs": [
        {
          "internalType": "bytes32",
          "name": "role",
          "type": "bytes32"
        },
        {
          "internalType": "address",
          "name": "account",
          "type": "address"
        }
      ],
      "name": "grantRole",
      "outputs": [],
      "stateMutability": "nonpayable",
      "type": "function"
    },
    {
      "inputs": [
        {
          "internalType": "bytes32",
          "name": "role",
          "type": "bytes32"
        },
        {
          "internalType": "address",
          "name": "account",
          "type": "address"
        }
      ],
      "name": "hasRole",
      "outputs": [
        {
          "internalType": "bool",
          "name": "",
          "type": "bool"
        }
      ],
      "stateMutability": "view",
      "type": "function",
      "constant": true
    },
    {
      "inputs": [
        {
          "internalType": "bytes32",
          "name": "role",
          "type": "bytes32"
        },
        {
          "internalType": "address",
          "name": "account",
          "type": "address"
        }
      ],
      "name": "renounceRole",
      "outputs": [],
      "stateMutability": "nonpayable",
      "type": "function"
    },
    {
      "inputs": [
        {
          "internalType": "bytes32",
          "name": "role",
          "type": "bytes32"
        },
        {
          "internalType": "address",
          "name": "account",
          "type": "address"
        }
      ],
      "name": "revokeRole",
      "outputs": [],
      "stateMutability": "nonpayable",
      "type": "function"
    },
    {
      "inputs": [
        {
          "internalType": "bytes4",
          "name": "interfaceId",
          "type": "bytes4"
        }
      ],
      "name": "supportsInterface",
      "outputs": [
        {
          "internalType": "bool",
          "name": "",
          "type": "bool"
        }
      ],
      "stateMutability": "view",
      "type": "function",
      "constant": true
    },
    {
      "inputs": [
        {
          "internalType": "address",
          "name": "doctor",
          "type": "address"
        }
      ],
      "name": "grantDoctorRole",
      "outputs": [],
      "stateMutability": "nonpayable",
      "type": "function"
    },
    {
      "inputs": [
        {
          "internalType": "address",
          "name": "doctor",
          "type": "address"
        }
      ],
      "name": "revokeDoctorRole",
      "outputs": [],
      "stateMutability": "nonpayable",
      "type": "function"
    },
    {
      "inputs": [
        {
          "internalType": "address",
          "name": "pharmacist",
          "type": "address"
        }
      ],
      "name": "grantPharmacistRole",
      "outputs": [],
      "stateMutability": "nonpayable",
      "type": "function"
    },
    {
      "inputs": [
        {
          "internalType": "address",
          "name": "pharmacist",
          "type": "address"
        }
      ],
      "name": "revokePharmacistRole",
      "outputs": [],
      "stateMutability": "nonpayable",
      "type": "function"
    },
    {
      "inputs": [
        {
          "internalType": "bytes32",
          "name": "prescriptionHash",
          "type": "bytes32"
        },
        {
          "internalType": "uint256",
          "name": "daysValid",
          "type": "uint256"
        }
      ],
      "name": "addPrescription",
      "outputs": [],
      "stateMutability": "nonpayable",
      "type": "function"
    },
    {
      "inputs": [
        {
          "internalType": "bytes32",
          "name": "prescriptionHash",
          "type": "bytes32"
        }
      ],
      "name": "verifyPrescription",
      "outputs": [
        {
          "internalType": "bool",
          "name": "",
          "type": "bool"
        }
      ],
      "stateMutability": "view",
      "type": "function",
      "constant": true
    },
    {
      "inputs": [
        {
          "internalType": "bytes32",
          "name": "prescriptionHash",
          "type": "bytes32"
        }
      ],
      "name": "deliverPrescription",
      "outputs": [],
      "stateMutability": "nonpayable",
      "type": "function"
    }
  ],
  "bytecode": "0x60806040523480156200001157600080fd5b50620000276000801b336200002d60201b60201c565b620001a6565b6200003f82826200004360201b60201c565b5050565b6200005582826200013460201b60201c565b6200013057600160008084815260200190815260200160002060000160008373ffffffffffffffffffffffffffffffffffffffff1673ffffffffffffffffffffffffffffffffffffffff16815260200190815260200160002060006101000a81548160ff021916908315150217905550620000d56200019e60201b60201c565b73ffffffffffffffffffffffffffffffffffffffff168173ffffffffffffffffffffffffffffffffffffffff16837f2f8788117e7eff1d82e926ec794901d17c78024a50270940304540a733656f0d60405160405180910390a45b5050565b600080600084815260200190815260200160002060000160008373ffffffffffffffffffffffffffffffffffffffff1673ffffffffffffffffffffffffffffffffffffffff16815260200190815260200160002060009054906101000a900460ff16905092915050565b600033905090565b61175f80620001b66000396000f3fe608060405234801561001057600080fd5b50600436106101005760003560e01c80639379244e11610097578063c532d9fa11610066578063c532d9fa14610293578063d547741f146102b1578063f971f3f1146102cd578063fec331f2146102fd57610100565b80639379244e14610221578063a03f6d3e1461023d578063a217fddf14610259578063ba3a7fee1461027757610100565b806336568abe116100d357806336568abe1461019d5780636bd6f34b146101b95780638642727f146101d557806391d14854146101f157610100565b806301ffc9a714610105578063248a9ca3146101355780632f2ff15d146101655780632f5635cc14610181575b600080fd5b61011f600480360381019061011a91906110ec565b61031b565b60405161012c91906113e3565b60405180910390f35b61014f600480360381019061014a919061104b565b610395565b60405161015c91906113fe565b60405180910390f35b61017f600480360381019061017a9190611074565b6103b4565b005b61019b60048036038101906101969190611022565b6103d5565b005b6101b760048036038101906101b29190611074565b610410565b005b6101d360048036038101906101ce9190611022565b610493565b005b6101ef60048036038101906101ea9190611022565b6104ce565b005b61020b60048036038101906102069190611074565b610509565b60405161021891906113e3565b60405180910390f35b61023b60048036038101906102369190611022565b610573565b005b610257600480360381019061025291906110b0565b6105ae565b005b6102616106f5565b60405161026e91906113fe565b60405180910390f35b610291600480360381019061028c919061104b565b6106fc565b005b61029b61088b565b6040516102a891906113fe565b60405180910390f35b6102cb60048036038101906102c69190611074565b6108af565b005b6102e760048036038101906102e2919061104b565b6108d0565b6040516102f491906113e3565b60405180910390f35b6103056109b7565b60405161031291906113fe565b60405180910390f35b60007f7965db0b000000000000000000000000000000000000000000000000000000007bffffffffffffffffffffffffffffffffffffffffffffffffffffffff1916827bffffffffffffffffffffffffffffffffffffffffffffffffffffffff1916148061038e575061038d826109db565b5b9050919050565b6000806000838152602001908152602001600020600101549050919050565b6103bd82610395565b6103c681610a45565b6103d08383610a59565b505050565b6000801b6103e281610a45565b61040c7f0af1dac7dea2fd7f7738119cec7df099dfad49aa9d2e7d17ba6b60f63ae7411f836103b4565b5050565b610418610b39565b73ffffffffffffffffffffffffffffffffffffffff168173ffffffffffffffffffffffffffffffffffffffff1614610485576040517f08c379a000000000000000000000000000000000000000000000000000000000815260040161047c906114bb565b60405180910390fd5b61048f8282610b41565b5050565b6000801b6104a081610a45565b6104ca7f0af1dac7dea2fd7f7738119cec7df099dfad49aa9d2e7d17ba6b60f63ae7411f836108af565b5050565b6000801b6104db81610a45565b6105057fc2d498fa6734073871a6dde33c56174c52423804118e0d5b66171fad3494de68836108af565b5050565b600080600084815260200190815260200160002060000160008373ffffffffffffffffffffffffffffffffffffffff1673ffffffffffffffffffffffffffffffffffffffff16815260200190815260200160002060009054906101000a900460ff16905092915050565b6000801b61058081610a45565b6105aa7fc2d498fa6734073871a6dde33c56174c52423804118e0d5b66171fad3494de68836103b4565b5050565b7f0af1dac7dea2fd7f7738119cec7df099dfad49aa9d2e7d17ba6b60f63ae7411f6105d881610a45565b60405180606001604052803373ffffffffffffffffffffffffffffffffffffffff16815260200160011515815260200162015180846106179190611558565b426106229190611502565b8152506001600085815260200190815260200160002060008201518160000160006101000a81548173ffffffffffffffffffffffffffffffffffffffff021916908373ffffffffffffffffffffffffffffffffffffffff16021790555060208201518160000160146101000a81548160ff02191690831515021790555060408201518160010155905050823373ffffffffffffffffffffffffffffffffffffffff167f80cfee78c3fc2dbce97daa6cd42138d6ed9750c5a831a895d9c2626f43e9a48e60405160405180910390a3505050565b6000801b81565b7fc2d498fa6734073871a6dde33c56174c52423804118e0d5b66171fad3494de6861072681610a45565b6000600160008481526020019081526020016000209050600073ffffffffffffffffffffffffffffffffffffffff168160000160009054906101000a900473ffffffffffffffffffffffffffffffffffffffff1673ffffffffffffffffffffffffffffffffffffffff1614156107d1576040517f08c379a00000000000000000000000000000000000000000000000000000000081526004016107c89061147b565b60405180910390fd5b8060000160149054906101000a900460ff16610822576040517f08c379a00000000000000000000000000000000000000000000000000000000081526004016108199061145b565b60405180910390fd5b8060010154421115610869576040517f08c379a00000000000000000000000000000000000000000000000000000000081526004016108609061149b565b60405180910390fd5b60008160000160146101000a81548160ff021916908315150217905550505050565b7fc2d498fa6734073871a6dde33c56174c52423804118e0d5b66171fad3494de6881565b6108b882610395565b6108c181610a45565b6108cb8383610b41565b505050565b60007fc2d498fa6734073871a6dde33c56174c52423804118e0d5b66171fad3494de686108fc81610a45565b6000600160008581526020019081526020016000206040518060600160405290816000820160009054906101000a900473ffffffffffffffffffffffffffffffffffffffff1673ffffffffffffffffffffffffffffffffffffffff1673ffffffffffffffffffffffffffffffffffffffff1681526020016000820160149054906101000a900460ff161515151581526020016001820154815250509050806020015180156109ae575080604001514211155b92505050919050565b7f0af1dac7dea2fd7f7738119cec7df099dfad49aa9d2e7d17ba6b60f63ae7411f81565b60007f01ffc9a7000000000000000000000000000000000000000000000000000000007bffffffffffffffffffffffffffffffffffffffffffffffffffffffff1916827bffffffffffffffffffffffffffffffffffffffffffffffffffffffff1916149050919050565b610a5681610a51610b39565b610c22565b50565b610a638282610509565b610b3557600160008084815260200190815260200160002060000160008373ffffffffffffffffffffffffffffffffffffffff1673ffffffffffffffffffffffffffffffffffffffff16815260200190815260200160002060006101000a81548160ff021916908315150217905550610ada610b39565b73ffffffffffffffffffffffffffffffffffffffff168173ffffffffffffffffffffffffffffffffffffffff16837f2f8788117e7eff1d82e926ec794901d17c78024a50270940304540a733656f0d60405160405180910390a45b5050565b600033905090565b610b4b8282610509565b15610c1e57600080600084815260200190815260200160002060000160008373ffffffffffffffffffffffffffffffffffffffff1673ffffffffffffffffffffffffffffffffffffffff16815260200190815260200160002060006101000a81548160ff021916908315150217905550610bc3610b39565b73ffffffffffffffffffffffffffffffffffffffff168173ffffffffffffffffffffffffffffffffffffffff16837ff6391f5c32d9c69d2a47ea670b442974b53935d1edc7fd64eb21e047a839171b60405160405180910390a45b5050565b610c2c8282610509565b610ca357610c3981610ca7565b610c478360001c6020610cd4565b604051602001610c589291906113a9565b6040516020818303038152906040526040517f08c379a0000000000000000000000000000000000000000000000000000000008152600401610c9a9190611419565b60405180910390fd5b5050565b6060610ccd8273ffffffffffffffffffffffffffffffffffffffff16601460ff16610cd4565b9050919050565b606060006002836002610ce79190611558565b610cf19190611502565b67ffffffffffffffff811115610d30577f4e487b7100000000000000000000000000000000000000000000000000000000600052604160045260246000fd5b6040519080825280601f01601f191660200182016040528015610d625781602001600182028036833780820191505090505b5090507f300000000000000000000000000000000000000000000000000000000000000081600081518110610dc0577f4e487b7100000000000000000000000000000000000000000000000000000000600052603260045260246000fd5b60200101907effffffffffffffffffffffffffffffffffffffffffffffffffffffffffffff1916908160001a9053507f780000000000000000000000000000000000000000000000000000000000000081600181518110610e4a577f4e487b7100000000000000000000000000000000000000000000000000000000600052603260045260246000fd5b60200101907effffffffffffffffffffffffffffffffffffffffffffffffffffffffffffff1916908160001a90535060006001846002610e8a9190611558565b610e949190611502565b90505b6001811115610f80577f3031323334353637383961626364656600000000000000000000000000000000600f861660108110610efc577f4e487b7100000000000000000000000000000000000000000000000000000000600052603260045260246000fd5b1a60f81b828281518110610f39577f4e487b7100000000000000000000000000000000000000000000000000000000600052603260045260246000fd5b60200101907effffffffffffffffffffffffffffffffffffffffffffffffffffffffffffff1916908160001a905350600485901c945080610f7990611663565b9050610e97565b5060008414610fc4576040517f08c379a0000000000000000000000000000000000000000000000000000000008152600401610fbb9061143b565b60405180910390fd5b8091505092915050565b600081359050610fdd816116cd565b92915050565b600081359050610ff2816116e4565b92915050565b600081359050611007816116fb565b92915050565b60008135905061101c81611712565b92915050565b60006020828403121561103457600080fd5b600061104284828501610fce565b91505092915050565b60006020828403121561105d57600080fd5b600061106b84828501610fe3565b91505092915050565b6000806040838503121561108757600080fd5b600061109585828601610fe3565b92505060206110a685828601610fce565b9150509250929050565b600080604083850312156110c357600080fd5b60006110d185828601610fe3565b92505060206110e28582860161100d565b9150509250929050565b6000602082840312156110fe57600080fd5b600061110c84828501610ff8565b91505092915050565b61111e816115c4565b82525050565b61112d816115d0565b82525050565b600061113e826114db565b61114881856114e6565b9350611158818560208601611630565b611161816116bc565b840191505092915050565b6000611177826114db565b61118181856114f7565b9350611191818560208601611630565b80840191505092915050565b60006111aa6020836114e6565b91507f537472696e67733a20686578206c656e67746820696e73756666696369656e746000830152602082019050919050565b60006111ea6027836114e6565b91507f507265736372697074696f6e2068617320616c7265616479206265656e20646560008301527f6c697665726564000000000000000000000000000000000000000000000000006020830152604082019050919050565b6000611250601b836114e6565b91507f507265736372697074696f6e20646f6573206e6f7420657869737400000000006000830152602082019050919050565b60006112906017836114f7565b91507f416363657373436f6e74726f6c3a206163636f756e74200000000000000000006000830152601782019050919050565b60006112d06018836114e6565b91507f507265736372697074696f6e20686173206578706972656400000000000000006000830152602082019050919050565b60006113106011836114f7565b91507f206973206d697373696e6720726f6c65200000000000000000000000000000006000830152601182019050919050565b6000611350602f836114e6565b91507f416363657373436f6e74726f6c3a2063616e206f6e6c792072656e6f756e636560008301527f20726f6c657320666f722073656c6600000000000000000000000000000000006020830152604082019050919050565b60006113b482611283565b91506113c0828561116c565b91506113cb82611303565b91506113d7828461116c565b91508190509392505050565b60006020820190506113f86000830184611115565b92915050565b60006020820190506114136000830184611124565b92915050565b600060208201905081810360008301526114338184611133565b905092915050565b600060208201905081810360008301526114548161119d565b9050919050565b60006020820190508181036000830152611474816111dd565b9050919050565b6000602082019050818103600083015261149481611243565b9050919050565b600060208201905081810360008301526114b4816112c3565b9050919050565b600060208201905081810360008301526114d481611343565b9050919050565b600081519050919050565b600082825260208201905092915050565b600081905092915050565b600061150d82611626565b915061151883611626565b9250827fffffffffffffffffffffffffffffffffffffffffffffffffffffffffffffffff0382111561154d5761154c61168d565b5b828201905092915050565b600061156382611626565b915061156e83611626565b9250817fffffffffffffffffffffffffffffffffffffffffffffffffffffffffffffffff04831182151516156115a7576115a661168d565b5b828202905092915050565b60006115bd82611606565b9050919050565b60008115159050919050565b6000819050919050565b60007fffffffff0000000000000000000000000000000000000000000000000000000082169050919050565b600073ffffffffffffffffffffffffffffffffffffffff82169050919050565b6000819050919050565b60005b8381101561164e578082015181840152602081019050611633565b8381111561165d576000848401525b50505050565b600061166e82611626565b915060008214156116825761168161168d565b5b600182039050919050565b7f4e487b7100000000000000000000000000000000000000000000000000000000600052601160045260246000fd5b6000601f19601f8301169050919050565b6116d6816115b2565b81146116e157600080fd5b50565b6116ed816115d0565b81146116f857600080fd5b50565b611704816115da565b811461170f57600080fd5b50565b61171b81611626565b811461172657600080fd5b5056fea2646970667358221220af539675941363a0fe86248e561fe0349b8a6b2a5fbde9c65dee9c16e63f719164736f6c63430008000033",
  "immutableReferences": {},
  "source": "pragma solidity ^0.8.0;\r\nimport \"../node_modules/@openzeppelin/contracts/access/AccessControl.sol\";\r\n\r\ncontract MedicalPrescription is AccessControl {\r\n    // Define roles using constants\r\n    bytes32 public constant DOCTOR_ROLE = keccak256(\"DOCTOR_ROLE\");\r\n    bytes32 public constant PHARMACIST_ROLE = keccak256(\"PHARMACIST_ROLE\");\r\n\r\n    struct Prescription {\r\n        address doctor;\r\n        bool toDeliver;\r\n        uint256 expirationDate;\r\n    }\r\n\r\n    mapping(bytes32 => Prescription) private prescriptions;\r\n\r\n    event PrescriptionAdded(address indexed doctor, bytes32 indexed prescriptionHash);\r\n\r\n    constructor() {\r\n        _setupRole(DEFAULT_ADMIN_ROLE, msg.sender);\r\n    }\r\n\r\n    function grantDoctorRole(address doctor) public onlyRole(DEFAULT_ADMIN_ROLE) {\r\n        grantRole(DOCTOR_ROLE, doctor);\r\n    }\r\n\r\n    function revokeDoctorRole(address doctor) public onlyRole(DEFAULT_ADMIN_ROLE) {\r\n        revokeRole(DOCTOR_ROLE, doctor);\r\n    }\r\n\r\n    function grantPharmacistRole(address pharmacist) public onlyRole(DEFAULT_ADMIN_ROLE) {\r\n        grantRole(PHARMACIST_ROLE, pharmacist);\r\n    }\r\n\r\n    function revokePharmacistRole(address pharmacist) public onlyRole(DEFAULT_ADMIN_ROLE) {\r\n        revokeRole(PHARMACIST_ROLE, pharmacist);\r\n    }\r\n\r\n    function addPrescription(bytes32 prescriptionHash, uint256 daysValid) public onlyRole(DOCTOR_ROLE) {\r\n        prescriptions[prescriptionHash] = Prescription({\r\n            doctor: msg.sender,\r\n            toDeliver: true,\r\n            expirationDate: block.timestamp + daysValid * 1 days\r\n        });\r\n        emit PrescriptionAdded(msg.sender, prescriptionHash);\r\n    }\r\n\r\n    function verifyPrescription(bytes32 prescriptionHash) public view onlyRole(PHARMACIST_ROLE) returns (bool) {\r\n        Prescription memory p = prescriptions[prescriptionHash];\r\n        return p.toDeliver && (block.timestamp <= p.expirationDate);\r\n    }\r\n\r\n    function deliverPrescription(bytes32 prescriptionHash) public onlyRole(PHARMACIST_ROLE) {\r\n        Prescription storage p = prescriptions[prescriptionHash];\r\n        require(p.doctor != address(0), \"Prescription does not exist\");\r\n        require(p.toDeliver, \"Prescription has already been delivered\");\r\n        require(block.timestamp <= p.expirationDate, \"Prescription has expired\");\r\n        p.toDeliver = false;\r\n    }\r\n}\r\n",
  "sourcePath": "C:\\Users\\arthu\\Documents\\PLDsmart\\blockchain\\contracts\\MedicalPrescription.sol",
  "compiler": {
    "name": "solc",
    "version": "0.8.0+commit.c7dfd78e.Emscripten.clang"
  },
  "schemaVersion": "3.4.13",
  "updatedAt": "2023-05-03T08:09:16.821Z",
  "networkType": "ethereum",
  "devdoc": {
    "kind": "dev",
    "methods": {
      "getRoleAdmin(bytes32)": {
        "details": "Returns the admin role that controls `role`. See {grantRole} and {revokeRole}. To change a role's admin, use {_setRoleAdmin}."
      },
      "grantRole(bytes32,address)": {
        "details": "Grants `role` to `account`. If `account` had not been already granted `role`, emits a {RoleGranted} event. Requirements: - the caller must have ``role``'s admin role. May emit a {RoleGranted} event."
      },
      "hasRole(bytes32,address)": {
        "details": "Returns `true` if `account` has been granted `role`."
      },
      "renounceRole(bytes32,address)": {
        "details": "Revokes `role` from the calling account. Roles are often managed via {grantRole} and {revokeRole}: this function's purpose is to provide a mechanism for accounts to lose their privileges if they are compromised (such as when a trusted device is misplaced). If the calling account had been revoked `role`, emits a {RoleRevoked} event. Requirements: - the caller must be `account`. May emit a {RoleRevoked} event."
      },
      "revokeRole(bytes32,address)": {
        "details": "Revokes `role` from `account`. If `account` had been granted `role`, emits a {RoleRevoked} event. Requirements: - the caller must have ``role``'s admin role. May emit a {RoleRevoked} event."
      },
      "supportsInterface(bytes4)": {
        "details": "See {IERC165-supportsInterface}."
      }
    },
    "version": 1
  },
  "userdoc": {
    "kind": "user",
    "methods": {},
    "version": 1
  }
}