{
  "contractName": "MedicalPrescription",
  "abi": [
    {
      "inputs": [],
      "stateMutability": "nonpayable",
      "type": "constructor"
    },
    {
      "anonymous": false,
      "inputs": [
        {
          "indexed": true,
          "internalType": "address",
          "name": "doctor",
          "type": "address"
        },
        {
          "indexed": true,
          "internalType": "bytes32",
          "name": "prescriptionHash",
          "type": "bytes32"
        }
      ],
      "name": "PrescriptionAdded",
      "type": "event"
    },
    {
      "anonymous": false,
      "inputs": [
        {
          "indexed": true,
          "internalType": "address",
          "name": "pharmacist",
          "type": "address"
        },
        {
          "indexed": true,
          "internalType": "bytes32",
          "name": "prescriptionHash",
          "type": "bytes32"
        }
      ],
      "name": "PrescriptionDelivered",
      "type": "event"
    },
    {
      "anonymous": false,
      "inputs": [
        {
          "indexed": true,
          "internalType": "address",
          "name": "doctor",
          "type": "address"
        },
        {
          "indexed": true,
          "internalType": "bytes32",
          "name": "prescriptionHash",
          "type": "bytes32"
        }
      ],
      "name": "PrescriptionRevoked",
      "type": "event"
    },
    {
      "anonymous": false,
      "inputs": [
        {
          "indexed": true,
          "internalType": "bytes32",
          "name": "role",
          "type": "bytes32"
        },
        {
          "indexed": true,
          "internalType": "bytes32",
          "name": "previousAdminRole",
          "type": "bytes32"
        },
        {
          "indexed": true,
          "internalType": "bytes32",
          "name": "newAdminRole",
          "type": "bytes32"
        }
      ],
      "name": "RoleAdminChanged",
      "type": "event"
    },
    {
      "anonymous": false,
      "inputs": [
        {
          "indexed": true,
          "internalType": "bytes32",
          "name": "role",
          "type": "bytes32"
        },
        {
          "indexed": true,
          "internalType": "address",
          "name": "account",
          "type": "address"
        },
        {
          "indexed": true,
          "internalType": "address",
          "name": "sender",
          "type": "address"
        }
      ],
      "name": "RoleGranted",
      "type": "event"
    },
    {
      "anonymous": false,
      "inputs": [
        {
          "indexed": true,
          "internalType": "bytes32",
          "name": "role",
          "type": "bytes32"
        },
        {
          "indexed": true,
          "internalType": "address",
          "name": "account",
          "type": "address"
        },
        {
          "indexed": true,
          "internalType": "address",
          "name": "sender",
          "type": "address"
        }
      ],
      "name": "RoleRevoked",
      "type": "event"
    },
    {
      "inputs": [],
      "name": "DEFAULT_ADMIN_ROLE",
      "outputs": [
        {
          "internalType": "bytes32",
          "name": "",
          "type": "bytes32"
        }
      ],
      "stateMutability": "view",
      "type": "function",
      "constant": true
    },
    {
      "inputs": [],
      "name": "DOCTOR_ROLE",
      "outputs": [
        {
          "internalType": "bytes32",
          "name": "",
          "type": "bytes32"
        }
      ],
      "stateMutability": "view",
      "type": "function",
      "constant": true
    },
    {
      "inputs": [],
      "name": "PHARMACIST_ROLE",
      "outputs": [
        {
          "internalType": "bytes32",
          "name": "",
          "type": "bytes32"
        }
      ],
      "stateMutability": "view",
      "type": "function",
      "constant": true
    },
    {
      "inputs": [
        {
          "internalType": "bytes32",
          "name": "role",
          "type": "bytes32"
        }
      ],
      "name": "getRoleAdmin",
      "outputs": [
        {
          "internalType": "bytes32",
          "name": "",
          "type": "bytes32"
        }
      ],
      "stateMutability": "view",
      "type": "function",
      "constant": true
    },
    {
      "inputs": [
        {
          "internalType": "bytes32",
          "name": "role",
          "type": "bytes32"
        },
        {
          "internalType": "address",
          "name": "account",
          "type": "address"
        }
      ],
      "name": "grantRole",
      "outputs": [],
      "stateMutability": "nonpayable",
      "type": "function"
    },
    {
      "inputs": [
        {
          "internalType": "bytes32",
          "name": "role",
          "type": "bytes32"
        },
        {
          "internalType": "address",
          "name": "account",
          "type": "address"
        }
      ],
      "name": "hasRole",
      "outputs": [
        {
          "internalType": "bool",
          "name": "",
          "type": "bool"
        }
      ],
      "stateMutability": "view",
      "type": "function",
      "constant": true
    },
    {
      "inputs": [
        {
          "internalType": "bytes32",
          "name": "role",
          "type": "bytes32"
        },
        {
          "internalType": "address",
          "name": "account",
          "type": "address"
        }
      ],
      "name": "renounceRole",
      "outputs": [],
      "stateMutability": "nonpayable",
      "type": "function"
    },
    {
      "inputs": [
        {
          "internalType": "bytes32",
          "name": "role",
          "type": "bytes32"
        },
        {
          "internalType": "address",
          "name": "account",
          "type": "address"
        }
      ],
      "name": "revokeRole",
      "outputs": [],
      "stateMutability": "nonpayable",
      "type": "function"
    },
    {
      "inputs": [
        {
          "internalType": "bytes4",
          "name": "interfaceId",
          "type": "bytes4"
        }
      ],
      "name": "supportsInterface",
      "outputs": [
        {
          "internalType": "bool",
          "name": "",
          "type": "bool"
        }
      ],
      "stateMutability": "view",
      "type": "function",
      "constant": true
    },
    {
      "inputs": [
        {
          "internalType": "address",
          "name": "doctor",
          "type": "address"
        }
      ],
      "name": "grantDoctorRole",
      "outputs": [],
      "stateMutability": "nonpayable",
      "type": "function"
    },
    {
      "inputs": [
        {
          "internalType": "address",
          "name": "doctor",
          "type": "address"
        }
      ],
      "name": "revokeDoctorRole",
      "outputs": [],
      "stateMutability": "nonpayable",
      "type": "function"
    },
    {
      "inputs": [
        {
          "internalType": "address",
          "name": "pharmacist",
          "type": "address"
        }
      ],
      "name": "grantPharmacistRole",
      "outputs": [],
      "stateMutability": "nonpayable",
      "type": "function"
    },
    {
      "inputs": [
        {
          "internalType": "address",
          "name": "pharmacist",
          "type": "address"
        }
      ],
      "name": "revokePharmacistRole",
      "outputs": [],
      "stateMutability": "nonpayable",
      "type": "function"
    },
    {
      "inputs": [
        {
          "internalType": "bytes32",
          "name": "prescriptionHash",
          "type": "bytes32"
        },
        {
          "internalType": "uint256",
          "name": "daysValid",
          "type": "uint256"
        }
      ],
      "name": "addPrescription",
      "outputs": [],
      "stateMutability": "nonpayable",
      "type": "function"
    },
    {
      "inputs": [
        {
          "internalType": "bytes32",
          "name": "prescriptionHash",
          "type": "bytes32"
        }
      ],
      "name": "verifyPrescription",
      "outputs": [
        {
          "internalType": "bool",
          "name": "",
          "type": "bool"
        }
      ],
      "stateMutability": "view",
      "type": "function",
      "constant": true
    },
    {
      "inputs": [
        {
          "internalType": "bytes32",
          "name": "prescriptionHash",
          "type": "bytes32"
        }
      ],
      "name": "deliverPrescription",
      "outputs": [],
      "stateMutability": "nonpayable",
      "type": "function"
    },
    {
      "inputs": [
        {
          "internalType": "bytes32",
          "name": "prescriptionHash",
          "type": "bytes32"
        }
      ],
      "name": "revokePrescription",
      "outputs": [],
      "stateMutability": "nonpayable",
      "type": "function"
    }
  ],
  "bytecode": "0x60806040523480156200001157600080fd5b50620000276000801b336200002d60201b60201c565b620001a6565b6200003f82826200004360201b60201c565b5050565b6200005582826200013460201b60201c565b6200013057600160008084815260200190815260200160002060000160008373ffffffffffffffffffffffffffffffffffffffff1673ffffffffffffffffffffffffffffffffffffffff16815260200190815260200160002060006101000a81548160ff021916908315150217905550620000d56200019e60201b60201c565b73ffffffffffffffffffffffffffffffffffffffff168173ffffffffffffffffffffffffffffffffffffffff16837f2f8788117e7eff1d82e926ec794901d17c78024a50270940304540a733656f0d60405160405180910390a45b5050565b600080600084815260200190815260200160002060000160008373ffffffffffffffffffffffffffffffffffffffff1673ffffffffffffffffffffffffffffffffffffffff16815260200190815260200160002060009054906101000a900460ff16905092915050565b600033905090565b611ed080620001b66000396000f3fe608060405234801561001057600080fd5b506004361061010b5760003560e01c806391d14854116100a2578063ba3a7fee11610071578063ba3a7fee1461029e578063c532d9fa146102ba578063d547741f146102d8578063f971f3f1146102f4578063fec331f2146103245761010b565b806391d14854146102185780639379244e14610248578063a03f6d3e14610264578063a217fddf146102805761010b565b806336568abe116100de57806336568abe146101a85780636bd6f34b146101c45780636f60d226146101e05780638642727f146101fc5761010b565b806301ffc9a714610110578063248a9ca3146101405780632f2ff15d146101705780632f5635cc1461018c575b600080fd5b61012a600480360381019061012591906116f1565b610342565b6040516101379190611af4565b60405180910390f35b61015a60048036038101906101559190611650565b6103bc565b6040516101679190611b0f565b60405180910390f35b61018a60048036038101906101859190611679565b6103db565b005b6101a660048036038101906101a19190611627565b6103fc565b005b6101c260048036038101906101bd9190611679565b610437565b005b6101de60048036038101906101d99190611627565b6104ba565b005b6101fa60048036038101906101f59190611650565b6104f5565b005b61021660048036038101906102119190611627565b6107bc565b005b610232600480360381019061022d9190611679565b6107f7565b60405161023f9190611af4565b60405180910390f35b610262600480360381019061025d9190611627565b610861565b005b61027e600480360381019061027991906116b5565b61089c565b005b610288610b02565b6040516102959190611b0f565b60405180910390f35b6102b860048036038101906102b39190611650565b610b09565b005b6102c2610d85565b6040516102cf9190611b0f565b60405180910390f35b6102f260048036038101906102ed9190611679565b610da9565b005b61030e60048036038101906103099190611650565b610dca565b60405161031b9190611af4565b60405180910390f35b61032c610f90565b6040516103399190611b0f565b60405180910390f35b60007f7965db0b000000000000000000000000000000000000000000000000000000007bffffffffffffffffffffffffffffffffffffffffffffffffffffffff1916827bffffffffffffffffffffffffffffffffffffffffffffffffffffffff191614806103b557506103b482610fb4565b5b9050919050565b6000806000838152602001908152602001600020600101549050919050565b6103e4826103bc565b6103ed8161101e565b6103f78383611032565b505050565b6000801b6104098161101e565b6104337f0af1dac7dea2fd7f7738119cec7df099dfad49aa9d2e7d17ba6b60f63ae7411f836103db565b5050565b61043f611112565b73ffffffffffffffffffffffffffffffffffffffff168173ffffffffffffffffffffffffffffffffffffffff16146104ac576040517f08c379a00000000000000000000000000000000000000000000000000000000081526004016104a390611c2c565b60405180910390fd5b6104b6828261111a565b5050565b6000801b6104c78161101e565b6104f17f0af1dac7dea2fd7f7738119cec7df099dfad49aa9d2e7d17ba6b60f63ae7411f83610da9565b5050565b7f0af1dac7dea2fd7f7738119cec7df099dfad49aa9d2e7d17ba6b60f63ae7411f61051f8161101e565b6000600160008481526020019081526020016000209050600073ffffffffffffffffffffffffffffffffffffffff168160000160009054906101000a900473ffffffffffffffffffffffffffffffffffffffff1673ffffffffffffffffffffffffffffffffffffffff1614156105ca576040517f08c379a00000000000000000000000000000000000000000000000000000000081526004016105c190611bcc565b60405180910390fd5b3373ffffffffffffffffffffffffffffffffffffffff168160000160009054906101000a900473ffffffffffffffffffffffffffffffffffffffff1673ffffffffffffffffffffffffffffffffffffffff161461065c576040517f08c379a000000000000000000000000000000000000000000000000000000000815260040161065390611b6c565b60405180910390fd5b60006003811115610696577f4e487b7100000000000000000000000000000000000000000000000000000000600052602160045260246000fd5b8160000160149054906101000a900460ff1660038111156106e0577f4e487b7100000000000000000000000000000000000000000000000000000000600052602160045260246000fd5b14610720576040517f08c379a000000000000000000000000000000000000000000000000000000000815260040161071790611c0c565b60405180910390fd5b60028160000160146101000a81548160ff0219169083600381111561076e577f4e487b7100000000000000000000000000000000000000000000000000000000600052602160045260246000fd5b0217905550823373ffffffffffffffffffffffffffffffffffffffff167f4bd778a645c09dae0c653d770278ff847c442cbc2a33577bbafc82cc6cd4095d60405160405180910390a3505050565b6000801b6107c98161101e565b6107f37fc2d498fa6734073871a6dde33c56174c52423804118e0d5b66171fad3494de6883610da9565b5050565b600080600084815260200190815260200160002060000160008373ffffffffffffffffffffffffffffffffffffffff1673ffffffffffffffffffffffffffffffffffffffff16815260200190815260200160002060009054906101000a900460ff16905092915050565b6000801b61086e8161101e565b6108987fc2d498fa6734073871a6dde33c56174c52423804118e0d5b66171fad3494de68836103db565b5050565b7f0af1dac7dea2fd7f7738119cec7df099dfad49aa9d2e7d17ba6b60f63ae7411f6108c68161101e565b600073ffffffffffffffffffffffffffffffffffffffff166001600085815260200190815260200160002060000160009054906101000a900473ffffffffffffffffffffffffffffffffffffffff1673ffffffffffffffffffffffffffffffffffffffff161461096b576040517f08c379a000000000000000000000000000000000000000000000000000000000815260040161096290611b8c565b60405180910390fd5b60405180606001604052803373ffffffffffffffffffffffffffffffffffffffff168152602001600060038111156109cc577f4e487b7100000000000000000000000000000000000000000000000000000000600052602160045260246000fd5b81526020016109f96109ea62015180866111fb90919063ffffffff16565b4261121190919063ffffffff16565b8152506001600085815260200190815260200160002060008201518160000160006101000a81548173ffffffffffffffffffffffffffffffffffffffff021916908373ffffffffffffffffffffffffffffffffffffffff16021790555060208201518160000160146101000a81548160ff02191690836003811115610aa7577f4e487b7100000000000000000000000000000000000000000000000000000000600052602160045260246000fd5b021790555060408201518160010155905050823373ffffffffffffffffffffffffffffffffffffffff167f80cfee78c3fc2dbce97daa6cd42138d6ed9750c5a831a895d9c2626f43e9a48e60405160405180910390a3505050565b6000801b81565b7fc2d498fa6734073871a6dde33c56174c52423804118e0d5b66171fad3494de68610b338161101e565b6000600160008481526020019081526020016000209050600073ffffffffffffffffffffffffffffffffffffffff168160000160009054906101000a900473ffffffffffffffffffffffffffffffffffffffff1673ffffffffffffffffffffffffffffffffffffffff161415610bde576040517f08c379a0000000000000000000000000000000000000000000000000000000008152600401610bd590611bcc565b60405180910390fd5b60006003811115610c18577f4e487b7100000000000000000000000000000000000000000000000000000000600052602160045260246000fd5b8160000160149054906101000a900460ff166003811115610c62577f4e487b7100000000000000000000000000000000000000000000000000000000600052602160045260246000fd5b14610ca2576040517f08c379a0000000000000000000000000000000000000000000000000000000008152600401610c9990611bac565b60405180910390fd5b8060010154421115610ce9576040517f08c379a0000000000000000000000000000000000000000000000000000000008152600401610ce090611bec565b60405180910390fd5b60018160000160146101000a81548160ff02191690836003811115610d37577f4e487b7100000000000000000000000000000000000000000000000000000000600052602160045260246000fd5b0217905550823373ffffffffffffffffffffffffffffffffffffffff167fce5942dbcd325554bc3375c2f46b53c920db8e22e04f7f7f08f14806162f4abf60405160405180910390a3505050565b7fc2d498fa6734073871a6dde33c56174c52423804118e0d5b66171fad3494de6881565b610db2826103bc565b610dbb8161101e565b610dc5838361111a565b505050565b60007fc2d498fa6734073871a6dde33c56174c52423804118e0d5b66171fad3494de68610df68161101e565b6000600160008581526020019081526020016000206040518060600160405290816000820160009054906101000a900473ffffffffffffffffffffffffffffffffffffffff1673ffffffffffffffffffffffffffffffffffffffff1673ffffffffffffffffffffffffffffffffffffffff1681526020016000820160149054906101000a900460ff166003811115610eb7577f4e487b7100000000000000000000000000000000000000000000000000000000600052602160045260246000fd5b6003811115610eef577f4e487b7100000000000000000000000000000000000000000000000000000000600052602160045260246000fd5b8152602001600182015481525050905060006003811115610f39577f4e487b7100000000000000000000000000000000000000000000000000000000600052602160045260246000fd5b81602001516003811115610f76577f4e487b7100000000000000000000000000000000000000000000000000000000600052602160045260246000fd5b148015610f87575080604001514211155b92505050919050565b7f0af1dac7dea2fd7f7738119cec7df099dfad49aa9d2e7d17ba6b60f63ae7411f81565b60007f01ffc9a7000000000000000000000000000000000000000000000000000000007bffffffffffffffffffffffffffffffffffffffffffffffffffffffff1916827bffffffffffffffffffffffffffffffffffffffffffffffffffffffff1916149050919050565b61102f8161102a611112565b611227565b50565b61103c82826107f7565b61110e57600160008084815260200190815260200160002060000160008373ffffffffffffffffffffffffffffffffffffffff1673ffffffffffffffffffffffffffffffffffffffff16815260200190815260200160002060006101000a81548160ff0219169083151502179055506110b3611112565b73ffffffffffffffffffffffffffffffffffffffff168173ffffffffffffffffffffffffffffffffffffffff16837f2f8788117e7eff1d82e926ec794901d17c78024a50270940304540a733656f0d60405160405180910390a45b5050565b600033905090565b61112482826107f7565b156111f757600080600084815260200190815260200160002060000160008373ffffffffffffffffffffffffffffffffffffffff1673ffffffffffffffffffffffffffffffffffffffff16815260200190815260200160002060006101000a81548160ff02191690831515021790555061119c611112565b73ffffffffffffffffffffffffffffffffffffffff168173ffffffffffffffffffffffffffffffffffffffff16837ff6391f5c32d9c69d2a47ea670b442974b53935d1edc7fd64eb21e047a839171b60405160405180910390a45b5050565b600081836112099190611cc9565b905092915050565b6000818361121f9190611c73565b905092915050565b61123182826107f7565b6112a85761123e816112ac565b61124c8360001c60206112d9565b60405160200161125d929190611aba565b6040516020818303038152906040526040517f08c379a000000000000000000000000000000000000000000000000000000000815260040161129f9190611b2a565b60405180910390fd5b5050565b60606112d28273ffffffffffffffffffffffffffffffffffffffff16601460ff166112d9565b9050919050565b6060600060028360026112ec9190611cc9565b6112f69190611c73565b67ffffffffffffffff811115611335577f4e487b7100000000000000000000000000000000000000000000000000000000600052604160045260246000fd5b6040519080825280601f01601f1916602001820160405280156113675781602001600182028036833780820191505090505b5090507f3000000000000000000000000000000000000000000000000000000000000000816000815181106113c5577f4e487b7100000000000000000000000000000000000000000000000000000000600052603260045260246000fd5b60200101907effffffffffffffffffffffffffffffffffffffffffffffffffffffffffffff1916908160001a9053507f78000000000000000000000000000000000000000000000000000000000000008160018151811061144f577f4e487b7100000000000000000000000000000000000000000000000000000000600052603260045260246000fd5b60200101907effffffffffffffffffffffffffffffffffffffffffffffffffffffffffffff1916908160001a9053506000600184600261148f9190611cc9565b6114999190611c73565b90505b6001811115611585577f3031323334353637383961626364656600000000000000000000000000000000600f861660108110611501577f4e487b7100000000000000000000000000000000000000000000000000000000600052603260045260246000fd5b1a60f81b82828151811061153e577f4e487b7100000000000000000000000000000000000000000000000000000000600052603260045260246000fd5b60200101907effffffffffffffffffffffffffffffffffffffffffffffffffffffffffffff1916908160001a905350600485901c94508061157e90611dd4565b905061149c565b50600084146115c9576040517f08c379a00000000000000000000000000000000000000000000000000000000081526004016115c090611b4c565b60405180910390fd5b8091505092915050565b6000813590506115e281611e3e565b92915050565b6000813590506115f781611e55565b92915050565b60008135905061160c81611e6c565b92915050565b60008135905061162181611e83565b92915050565b60006020828403121561163957600080fd5b6000611647848285016115d3565b91505092915050565b60006020828403121561166257600080fd5b6000611670848285016115e8565b91505092915050565b6000806040838503121561168c57600080fd5b600061169a858286016115e8565b92505060206116ab858286016115d3565b9150509250929050565b600080604083850312156116c857600080fd5b60006116d6858286016115e8565b92505060206116e785828601611612565b9150509250929050565b60006020828403121561170357600080fd5b6000611711848285016115fd565b91505092915050565b61172381611d35565b82525050565b61173281611d41565b82525050565b600061174382611c4c565b61174d8185611c57565b935061175d818560208601611da1565b61176681611e2d565b840191505092915050565b600061177c82611c4c565b6117868185611c68565b9350611796818560208601611da1565b80840191505092915050565b60006117af602083611c57565b91507f537472696e67733a20686578206c656e67746820696e73756666696369656e746000830152602082019050919050565b60006117ef603a83611c57565b91507f4f6e6c792074686520646f63746f722077686f2063726561746564207468652060008301527f707265736372697074696f6e2063616e207265766f6b652069740000000000006020830152604082019050919050565b6000611855602983611c57565b91507f507265736372697074696f6e20776974682074686973206861736820616c726560008301527f61647920657869737400000000000000000000000000000000000000000000006020830152604082019050919050565b60006118bb601983611c57565b91507f507265736372697074696f6e206973206e6f742076616c6964000000000000006000830152602082019050919050565b60006118fb601b83611c57565b91507f507265736372697074696f6e20646f6573206e6f7420657869737400000000006000830152602082019050919050565b600061193b601783611c68565b91507f416363657373436f6e74726f6c3a206163636f756e74200000000000000000006000830152601782019050919050565b600061197b601883611c57565b91507f507265736372697074696f6e20686173206578706972656400000000000000006000830152602082019050919050565b60006119bb601183611c68565b91507f206973206d697373696e6720726f6c65200000000000000000000000000000006000830152601182019050919050565b60006119fb603783611c57565b91507f507265736372697074696f6e206973206e6f742076616c6964206f722068617360008301527f20616c7265616479206265656e2064656c6976657265640000000000000000006020830152604082019050919050565b6000611a61602f83611c57565b91507f416363657373436f6e74726f6c3a2063616e206f6e6c792072656e6f756e636560008301527f20726f6c657320666f722073656c6600000000000000000000000000000000006020830152604082019050919050565b6000611ac58261192e565b9150611ad18285611771565b9150611adc826119ae565b9150611ae88284611771565b91508190509392505050565b6000602082019050611b09600083018461171a565b92915050565b6000602082019050611b246000830184611729565b92915050565b60006020820190508181036000830152611b448184611738565b905092915050565b60006020820190508181036000830152611b65816117a2565b9050919050565b60006020820190508181036000830152611b85816117e2565b9050919050565b60006020820190508181036000830152611ba581611848565b9050919050565b60006020820190508181036000830152611bc5816118ae565b9050919050565b60006020820190508181036000830152611be5816118ee565b9050919050565b60006020820190508181036000830152611c058161196e565b9050919050565b60006020820190508181036000830152611c25816119ee565b9050919050565b60006020820190508181036000830152611c4581611a54565b9050919050565b600081519050919050565b600082825260208201905092915050565b600081905092915050565b6000611c7e82611d97565b9150611c8983611d97565b9250827fffffffffffffffffffffffffffffffffffffffffffffffffffffffffffffffff03821115611cbe57611cbd611dfe565b5b828201905092915050565b6000611cd482611d97565b9150611cdf83611d97565b9250817fffffffffffffffffffffffffffffffffffffffffffffffffffffffffffffffff0483118215151615611d1857611d17611dfe565b5b828202905092915050565b6000611d2e82611d77565b9050919050565b60008115159050919050565b6000819050919050565b60007fffffffff0000000000000000000000000000000000000000000000000000000082169050919050565b600073ffffffffffffffffffffffffffffffffffffffff82169050919050565b6000819050919050565b60005b83811015611dbf578082015181840152602081019050611da4565b83811115611dce576000848401525b50505050565b6000611ddf82611d97565b91506000821415611df357611df2611dfe565b5b600182039050919050565b7f4e487b7100000000000000000000000000000000000000000000000000000000600052601160045260246000fd5b6000601f19601f8301169050919050565b611e4781611d23565b8114611e5257600080fd5b50565b611e5e81611d41565b8114611e6957600080fd5b50565b611e7581611d4b565b8114611e8057600080fd5b50565b611e8c81611d97565b8114611e9757600080fd5b5056fea26469706673582212203742350bccf2ba5c5c75a884dab4cd7cf950362adca4d1b7a484c6f7fd3dffcf64736f6c63430008000033",
  "immutableReferences": {},
  "source": "pragma solidity ^0.8.0;\r\n\r\nimport \"../node_modules/@openzeppelin/contracts/access/AccessControl.sol\";\r\nimport \"../node_modules/@openzeppelin/contracts/utils/math/SafeMath.sol\";\r\n\r\ncontract MedicalPrescription is AccessControl {\r\n    using SafeMath for uint256;\r\n\r\n    // Define roles using constants\r\n    bytes32 public constant DOCTOR_ROLE = keccak256(\"DOCTOR_ROLE\");\r\n    bytes32 public constant PHARMACIST_ROLE = keccak256(\"PHARMACIST_ROLE\");\r\n\r\n    enum PrescriptionStatus { Valid, Delivered, Revoked, Expired }\r\n\r\n    struct Prescription {\r\n        address doctor;\r\n        PrescriptionStatus status;\r\n        uint256 expirationDate;\r\n    }\r\n\r\n    mapping(bytes32 => Prescription) private prescriptions;\r\n\r\n    event PrescriptionAdded(address indexed doctor, bytes32 indexed prescriptionHash);\r\n    event PrescriptionRevoked(address indexed doctor, bytes32 indexed prescriptionHash);\r\n    event PrescriptionDelivered(address indexed pharmacist, bytes32 indexed prescriptionHash);\r\n\r\n    constructor() {\r\n        _setupRole(DEFAULT_ADMIN_ROLE, msg.sender);\r\n    }\r\n\r\n    // Role management functions\r\n    function grantDoctorRole(address doctor) public onlyRole(DEFAULT_ADMIN_ROLE) {\r\n        grantRole(DOCTOR_ROLE, doctor);\r\n    }\r\n\r\n    function revokeDoctorRole(address doctor) public onlyRole(DEFAULT_ADMIN_ROLE) {\r\n        revokeRole(DOCTOR_ROLE, doctor);\r\n    }\r\n\r\n    function grantPharmacistRole(address pharmacist) public onlyRole(DEFAULT_ADMIN_ROLE) {\r\n        grantRole(PHARMACIST_ROLE, pharmacist);\r\n    }\r\n\r\n    function revokePharmacistRole(address pharmacist) public onlyRole(DEFAULT_ADMIN_ROLE) {\r\n        revokeRole(PHARMACIST_ROLE, pharmacist);\r\n    }\r\n\r\n    // Prescription management functions\r\n    function addPrescription(bytes32 prescriptionHash, uint256 daysValid) public onlyRole(DOCTOR_ROLE) {\r\n        require(prescriptions[prescriptionHash].doctor == address(0), \"Prescription with this hash already exist\");\r\n        prescriptions[prescriptionHash] = Prescription({\r\n            doctor: msg.sender,\r\n            status: PrescriptionStatus.Valid,\r\n            expirationDate: block.timestamp.add(daysValid.mul(1 days))\r\n        });\r\n        emit PrescriptionAdded(msg.sender, prescriptionHash);\r\n    }\r\n\r\n    function verifyPrescription(bytes32 prescriptionHash) public view onlyRole(PHARMACIST_ROLE) returns (bool) {\r\n        Prescription memory p = prescriptions[prescriptionHash];\r\n        return p.status == PrescriptionStatus.Valid && (block.timestamp <= p.expirationDate);\r\n    }\r\n\r\n    function deliverPrescription(bytes32 prescriptionHash) public onlyRole(PHARMACIST_ROLE) {\r\n        Prescription storage p = prescriptions[prescriptionHash];\r\n        require(p.doctor != address(0), \"Prescription does not exist\");\r\n        require(p.status == PrescriptionStatus.Valid, \"Prescription is not valid\");\r\n        require(block.timestamp <= p.expirationDate, \"Prescription has expired\");\r\n        p.status = PrescriptionStatus.Delivered;\r\n        emit PrescriptionDelivered(msg.sender, prescriptionHash);\r\n    }\r\n\r\n    function revokePrescription(bytes32 prescriptionHash) public onlyRole(DOCTOR_ROLE) {\r\n        Prescription storage p = prescriptions[prescriptionHash];\r\n        require(p.doctor != address(0), \"Prescription does not exist\");\r\n        require(p.doctor == msg.sender, \"Only the doctor who created the prescription can revoke it\");\r\n        require(p.status == PrescriptionStatus.Valid, \"Prescription is not valid or has already been delivered\");\r\n        p.status = PrescriptionStatus.Revoked;\r\n        emit PrescriptionRevoked(msg.sender, prescriptionHash);\r\n    }\r\n}",
  "sourcePath": "C:\\Users\\arthu\\Documents\\PLDsmart\\blockchain\\contracts\\MedicalPrescription.sol",
  "compiler": {
    "name": "solc",
    "version": "0.8.0+commit.c7dfd78e.Emscripten.clang"
  },
  "schemaVersion": "3.4.13",
  "updatedAt": "2023-05-03T09:49:10.331Z",
  "networkType": "ethereum",
  "devdoc": {
    "kind": "dev",
    "methods": {
      "getRoleAdmin(bytes32)": {
        "details": "Returns the admin role that controls `role`. See {grantRole} and {revokeRole}. To change a role's admin, use {_setRoleAdmin}."
      },
      "grantRole(bytes32,address)": {
        "details": "Grants `role` to `account`. If `account` had not been already granted `role`, emits a {RoleGranted} event. Requirements: - the caller must have ``role``'s admin role. May emit a {RoleGranted} event."
      },
      "hasRole(bytes32,address)": {
        "details": "Returns `true` if `account` has been granted `role`."
      },
      "renounceRole(bytes32,address)": {
        "details": "Revokes `role` from the calling account. Roles are often managed via {grantRole} and {revokeRole}: this function's purpose is to provide a mechanism for accounts to lose their privileges if they are compromised (such as when a trusted device is misplaced). If the calling account had been revoked `role`, emits a {RoleRevoked} event. Requirements: - the caller must be `account`. May emit a {RoleRevoked} event."
      },
      "revokeRole(bytes32,address)": {
        "details": "Revokes `role` from `account`. If `account` had been granted `role`, emits a {RoleRevoked} event. Requirements: - the caller must have ``role``'s admin role. May emit a {RoleRevoked} event."
      },
      "supportsInterface(bytes4)": {
        "details": "See {IERC165-supportsInterface}."
      }
    },
    "version": 1
  },
  "userdoc": {
    "kind": "user",
    "methods": {},
    "version": 1
  }
}