{
  "contractName": "MedicalPrescription",
  "abi": [
    {
      "inputs": [],
      "stateMutability": "nonpayable",
      "type": "constructor"
    },
    {
      "anonymous": false,
      "inputs": [
        {
          "indexed": true,
          "internalType": "address",
          "name": "doctor",
          "type": "address"
        },
        {
          "indexed": true,
          "internalType": "bytes32",
          "name": "prescriptionHash",
          "type": "bytes32"
        }
      ],
      "name": "PrescriptionAdded",
      "type": "event"
    },
    {
      "anonymous": false,
      "inputs": [
        {
          "indexed": true,
          "internalType": "address",
          "name": "pharmacist",
          "type": "address"
        },
        {
          "indexed": true,
          "internalType": "bytes32",
          "name": "prescriptionHash",
          "type": "bytes32"
        }
      ],
      "name": "PrescriptionVerified",
      "type": "event"
    },
    {
      "inputs": [
        {
          "internalType": "address",
          "name": "doctor",
          "type": "address"
        }
      ],
      "name": "addDoctor",
      "outputs": [],
      "stateMutability": "nonpayable",
      "type": "function"
    },
    {
      "inputs": [
        {
          "internalType": "address",
          "name": "doctor",
          "type": "address"
        }
      ],
      "name": "removeDoctor",
      "outputs": [],
      "stateMutability": "nonpayable",
      "type": "function"
    },
    {
      "inputs": [
        {
          "internalType": "address",
          "name": "pharmacist",
          "type": "address"
        }
      ],
      "name": "addPharmacist",
      "outputs": [],
      "stateMutability": "nonpayable",
      "type": "function"
    },
    {
      "inputs": [
        {
          "internalType": "address",
          "name": "pharmacist",
          "type": "address"
        }
      ],
      "name": "removePharmacist",
      "outputs": [],
      "stateMutability": "nonpayable",
      "type": "function"
    },
    {
      "inputs": [
        {
          "internalType": "bytes32",
          "name": "prescriptionHash",
          "type": "bytes32"
        }
      ],
      "name": "addPrescription",
      "outputs": [],
      "stateMutability": "nonpayable",
      "type": "function"
    },
    {
      "inputs": [
        {
          "internalType": "bytes32",
          "name": "prescriptionHash",
          "type": "bytes32"
        }
      ],
      "name": "verifyPrescription",
      "outputs": [
        {
          "internalType": "bool",
          "name": "",
          "type": "bool"
        }
      ],
      "stateMutability": "nonpayable",
      "type": "function"
    },
    {
      "inputs": [
        {
          "internalType": "address",
          "name": "doctor",
          "type": "address"
        }
      ],
      "name": "isDoctor",
      "outputs": [
        {
          "internalType": "bool",
          "name": "",
          "type": "bool"
        }
      ],
      "stateMutability": "view",
      "type": "function",
      "constant": true
    }
  ],
  "bytecode": "0x608060405234801561001057600080fd5b50336000806101000a81548173ffffffffffffffffffffffffffffffffffffffff021916908373ffffffffffffffffffffffffffffffffffffffff1602179055506109f0806100606000396000f3fe608060405234801561001057600080fd5b506004361061007d5760003560e01c8063c09e26931161005b578063c09e2693146100ea578063d9c54dcd14610106578063dc54429a14610122578063f971f3f11461013e5761007d565b80634780468f1461008257806398fc90e91461009e578063996440c6146100ba575b600080fd5b61009c60048036038101906100979190610797565b61016e565b005b6100b860048036038101906100b39190610797565b610256565b005b6100d460048036038101906100cf9190610797565b61033f565b6040516100e191906108b8565b60405180910390f35b61010460048036038101906100ff9190610797565b610395565b005b610120600480360381019061011b9190610797565b61047e565b005b61013c600480360381019061013791906107c0565b610567565b005b610158600480360381019061015391906107c0565b610666565b60405161016591906108b8565b60405180910390f35b60008054906101000a900473ffffffffffffffffffffffffffffffffffffffff1673ffffffffffffffffffffffffffffffffffffffff163373ffffffffffffffffffffffffffffffffffffffff16146101fc576040517f08c379a00000000000000000000000000000000000000000000000000000000081526004016101f3906108d3565b60405180910390fd5b60018060008373ffffffffffffffffffffffffffffffffffffffff1673ffffffffffffffffffffffffffffffffffffffff16815260200190815260200160002060006101000a81548160ff02191690831515021790555050565b60008054906101000a900473ffffffffffffffffffffffffffffffffffffffff1673ffffffffffffffffffffffffffffffffffffffff163373ffffffffffffffffffffffffffffffffffffffff16146102e4576040517f08c379a00000000000000000000000000000000000000000000000000000000081526004016102db906108d3565b60405180910390fd5b6000600160008373ffffffffffffffffffffffffffffffffffffffff1673ffffffffffffffffffffffffffffffffffffffff16815260200190815260200160002060006101000a81548160ff02191690831515021790555050565b6000600160008373ffffffffffffffffffffffffffffffffffffffff1673ffffffffffffffffffffffffffffffffffffffff16815260200190815260200160002060009054906101000a900460ff169050919050565b60008054906101000a900473ffffffffffffffffffffffffffffffffffffffff1673ffffffffffffffffffffffffffffffffffffffff163373ffffffffffffffffffffffffffffffffffffffff1614610423576040517f08c379a000000000000000000000000000000000000000000000000000000000815260040161041a906108d3565b60405180910390fd5b6001600260008373ffffffffffffffffffffffffffffffffffffffff1673ffffffffffffffffffffffffffffffffffffffff16815260200190815260200160002060006101000a81548160ff02191690831515021790555050565b60008054906101000a900473ffffffffffffffffffffffffffffffffffffffff1673ffffffffffffffffffffffffffffffffffffffff163373ffffffffffffffffffffffffffffffffffffffff161461050c576040517f08c379a0000000000000000000000000000000000000000000000000000000008152600401610503906108d3565b60405180910390fd5b6000600260008373ffffffffffffffffffffffffffffffffffffffff1673ffffffffffffffffffffffffffffffffffffffff16815260200190815260200160002060006101000a81548160ff02191690831515021790555050565b600160003373ffffffffffffffffffffffffffffffffffffffff1673ffffffffffffffffffffffffffffffffffffffff16815260200190815260200160002060009054906101000a900460ff166105f3576040517f08c379a00000000000000000000000000000000000000000000000000000000081526004016105ea906108f3565b60405180910390fd5b60016003600083815260200190815260200160002060006101000a81548160ff021916908315150217905550803373ffffffffffffffffffffffffffffffffffffffff167f80cfee78c3fc2dbce97daa6cd42138d6ed9750c5a831a895d9c2626f43e9a48e60405160405180910390a350565b6000600260003373ffffffffffffffffffffffffffffffffffffffff1673ffffffffffffffffffffffffffffffffffffffff16815260200190815260200160002060009054906101000a900460ff166106f4576040517f08c379a00000000000000000000000000000000000000000000000000000000081526004016106eb90610913565b60405180910390fd5b60006003600084815260200190815260200160002060009054906101000a900460ff169050801561076457823373ffffffffffffffffffffffffffffffffffffffff167f0976058cf687a2ed9bc91330626ee3acd35682ccfe527ed5f190b9f6a109fe1860405160405180910390a35b80915050919050565b60008135905061077c8161098c565b92915050565b600081359050610791816109a3565b92915050565b6000602082840312156107a957600080fd5b60006107b78482850161076d565b91505092915050565b6000602082840312156107d257600080fd5b60006107e084828501610782565b91505092915050565b6107f281610956565b82525050565b6000610805601783610933565b91507f43616c6c6572206973206e6f7420746865206f776e65720000000000000000006000830152602082019050919050565b6000610845601683610933565b91507f43616c6c6572206973206e6f74206120646f63746f72000000000000000000006000830152602082019050919050565b6000610885601a83610933565b91507f43616c6c6572206973206e6f74206120706861726d61636973740000000000006000830152602082019050919050565b60006020820190506108cd60008301846107e9565b92915050565b600060208201905081810360008301526108ec816107f8565b9050919050565b6000602082019050818103600083015261090c81610838565b9050919050565b6000602082019050818103600083015261092c81610878565b9050919050565b600082825260208201905092915050565b600061094f8261096c565b9050919050565b60008115159050919050565b6000819050919050565b600073ffffffffffffffffffffffffffffffffffffffff82169050919050565b61099581610944565b81146109a057600080fd5b50565b6109ac81610962565b81146109b757600080fd5b5056fea2646970667358221220bce5afb24176813b03ce218f1a8c89fb4ce2507f63842e2bb46bcafbfee49c1164736f6c63430008000033",
  "immutableReferences": {},
  "source": "pragma solidity ^0.8.0;\r\n\r\ncontract MedicalPrescription {\r\n\r\n    address private owner;\r\n    mapping(address => bool) private doctors;\r\n    mapping(address => bool) private pharmacists;\r\n    mapping(bytes32 => bool) private prescriptions;\r\n\r\n    event PrescriptionAdded(address indexed doctor, bytes32 indexed prescriptionHash);\r\n    event PrescriptionVerified(address indexed pharmacist, bytes32 indexed prescriptionHash);\r\n\r\n    modifier onlyOwner() {\r\n        require(msg.sender == owner, \"Caller is not the owner\");\r\n        _;\r\n    }\r\n\r\n    modifier onlyDoctor() {\r\n        require(doctors[msg.sender], \"Caller is not a doctor\");\r\n        _;\r\n    }\r\n\r\n    modifier onlyPharmacist() {\r\n        require(pharmacists[msg.sender], \"Caller is not a pharmacist\");\r\n        _;\r\n    }\r\n\r\n    constructor() {\r\n        owner = msg.sender;\r\n    }\r\n\r\n    function addDoctor(address doctor) public onlyOwner {\r\n        doctors[doctor] = true;\r\n    }\r\n\r\n    function removeDoctor(address doctor) public onlyOwner {\r\n        doctors[doctor] = false;\r\n    }\r\n\r\n    function addPharmacist(address pharmacist) public onlyOwner {\r\n        pharmacists[pharmacist] = true;\r\n    }\r\n\r\n    function removePharmacist(address pharmacist) public onlyOwner {\r\n        pharmacists[pharmacist] = false;\r\n    }\r\n\r\n    function addPrescription(bytes32 prescriptionHash) public onlyDoctor {\r\n        prescriptions[prescriptionHash] = true;\r\n        emit PrescriptionAdded(msg.sender, prescriptionHash);\r\n    }\r\n\r\n    function verifyPrescription(bytes32 prescriptionHash) public onlyPharmacist returns (bool) {\r\n        bool isValid = prescriptions[prescriptionHash];\r\n        if (isValid) {\r\n            emit PrescriptionVerified(msg.sender, prescriptionHash);\r\n        }\r\n        return isValid;\r\n    }\r\n\r\n    function isDoctor(address doctor) public view returns (bool) {\r\n        return doctors[doctor];\r\n    }\r\n}\r\n",
  "sourcePath": "C:\\Users\\arthu\\Documents\\PLDsmart\\blockchain\\contracts\\MedicalPrescription.sol",
  "compiler": {
    "name": "solc",
    "version": "0.8.0+commit.c7dfd78e.Emscripten.clang"
  },
  "schemaVersion": "3.4.13",
  "updatedAt": "2023-05-02T14:34:49.939Z",
  "networkType": "ethereum",
  "devdoc": {
    "kind": "dev",
    "methods": {},
    "version": 1
  },
  "userdoc": {
    "kind": "user",
    "methods": {},
    "version": 1
  }
}